:100000004DC067C031C265C064C063C062C061C01A
:1000100060C05FC05EC05DC05CC05BC05AC0050C04
:100020000901A101850119002A3C021500263C02A4
:10003000950175108100C009022200010100803283
:100040000904000001030000000921010100012250
:1000500019000705810308000A12011001000000C1
:1000600008C016DB27000101020001100356006FD3
:10007000006C004B006E006F0062001C036400699E
:1000800000670069007300740075006D0070002E39
:100090000063006F006D00040309040011241FBEFB
:1000A000CFE5D2E0DEBFCDBF10E0A0E6B0E0ECEFE0
:1000B000F7E002C005900D92A636B107D9F720E00F
:1000C000A6E6B0E001C01D92A23AB207E1F72AD33A
:1000D00093C396CFFC0181E690E0909387008093D4
:1000E000860080818076803291F48181813089F030
:1000F000823041F489E690E09093870080938600F7
:1001000081E008958A3019F483818093690080E04A
:10011000089583E00895DF92EF92FF920F931F936B
:10012000CF93DF9308E010E0C0E0D0E8DD2EDC0ED6
:10013000D1BE87D17C0184E3E81689E0F8060CF48F
:10014000CD2DD6950150110989F78FEF8C0F81BF06
:100150000C2F10E00F5F1F4F81B78017110651F071
:100160004CF0C1BFDF91CF911F910F91FF90EF90A5
:10017000DF90089566D18453994097FF03C091950D
:10018000819591098E159F0514F4C1B77C0181B743
:100190008F5F81BFE1CFBFCFCF93C62F2091770074
:1001A00024FF18C02091780038E823272093780096
:1001B0002C2FFC01A9E7B0E081918D9321501216FC
:1001C000DCF36C2F89E790E038D1CC5FC0937700E7
:1001D000CF9108952AE520937700EACFCF93DF935C
:1001E00080918800835087FD27C0909184009D32C4
:1001F00009F58830F9F480918500CCE0D0E0C81B87
:10020000D109C457DF4F83EC80936C008AE580935B
:10021000650010926B008881807609F468C0CE0179
:1002200059DF9F81911104C09E81981708F4892F8E
:1002300080936400109288008091650084FF3CC028
:10024000809164008F3FC1F1C82F893008F0C8E069
:10025000982F9C1B9093640090916C0028E8922743
:1002600090936C008823E1F04091860050918700C4
:1002700080916B0086FFB8C0ADE6B0E0FA019C2F1C
:1002800084918D9331969150D9F72FEF2C0F30E058
:100290002F5F3F4F240F351F309387002093860038
:1002A0006C2F8DE690E0C9D0CC5FCC3019F08FEF89
:1002B00080936400C093650084E196B3987131F433
:1002C0008150D9F71092890010928300C1E081110A
:1002D000C0E090916A00C91739F0882319F0F894AA
:1002E0001ADF7894C0936A00DF91CF9108952A8134
:1002F00010927500998191110AC01092760025E73D
:1003000030E082E030938700209386008ACF9530DA
:1003100029F42093890025E730E0F4CF963009F0E6
:100320004CC09B81913059F489E590E0909387000F
:100330008093860082E190E490936B0072CF9230BC
:1003400041F487E390E0909387008093860082E2F7
:10035000F2CF9330F1F4211108C087E990E0909337
:1003600087008093860084E0E6CF213041F48BE75C
:1003700090E090938700809386008CE1DCCF223060
:10038000D1F68BE690E0909387008093860080E121
:10039000D2CF913241F489E490E09093870080932A
:1003A000860089E0C8CF923231F68EE190E09093DA
:1003B00087008093860089E1BECF983071F0993034
:1003C00019F420938B00A7CF9A3059F09B3009F095
:1003D000A2CF9BE4909378009ECF2BE830E081E0A1
:1003E00091CF25E730E0FBCFDA01EDE6F0E09C2F7E
:1003F0008D9181939150E1F748CFAC9A8BB7806291
:100400008BBFE7E7F0E08BE481838AE58083089582
:10041000A82FB92F80E090E041E050EA609530E0ED
:1004200009C02D9182279795879510F084279527ED
:10043000305EC8F36F5FA8F30895EADF8D939D9354
:100440000895A6E088279927AA9569F00197E1F316
:10045000B399FCCFB39BFECF81E09927A6B3019659
:1004600011F0A871D9F70895CF93CFB7CF93C39563
:10047000B39BE9F7B39B0BC0B39B09C0B39B07C009
:10048000B39B05C0B39B03C0B39B01C0D5C00F9203
:10049000DF93C0918500DD27C457DF4F012EB39B4A
:1004A00003C0DF910F90E6CF2F930F931F934F93CD
:1004B0002FEF4F6F06B303FB20F95F933F9350E09C
:1004C0003BE065C016B30126502953FDC89556B3CD
:1004D000012703FB25F92F7306B3B1F0502710272E
:1004E00013FB26F906B22230F0F000C016B3012744
:1004F00003FB27F90126502906B22430E8F54F778F
:10050000206816B30000F6CF50274F7D206206B258
:10051000102F000000C006B300265029102713FB3F
:1005200026F906B2E2CF4F7B06B3206400C0DACFD3
:1005300001265029187106B269F14E7F2160012F02
:1005400016B328C0002650294D7F06B22260102F16
:1005500029C0012650294B7F06B22460012F2DC0EF
:1005600016B301265029477F2860000006B22EC02E
:100570004F7E06B3206130C0422706B34993002660
:100580005029102706B24FEF13FB20F9297F16B32D
:1005900079F2187159F10126502906B2012703FB9F
:1005A00021F9237F06B371F2002650293150D0F093
:1005B00006B2102713FB22F9277E16B351F201264B
:1005C0005029012703FB06B223F92F7C49F20000D2
:1005D00006B3102713FB24F90026502906B22F7901
:1005E00039F270CF10E21ABF002719C03B50319585
:1005F000C31BD04010E21ABF0881033C09F10B3441
:10060000F9F0209183001981110F1213EDCF4A8167
:10061000441F093651F10D3211F0013E29F70093C4
:100620008A003F915F914F911F910F912F91DF9120
:100630000F90CAB7C5FD1BCFCF91CFBFCF911895F3
:1006400020918A00222369F310918800112379F503
:1006500034307AF130938800209384001091850023
:100660003BE0311B3093850024C0009188000130AD
:10067000F4F40AE54F7049F43091650034FD1AC076
:1006800000936500CCE6D0E019C03091770034FDCE
:1006900011C000937700C8E7D0E010C0052710E034
:1006A00000C021C0052710E0C89508BB14C03AE57A
:1006B00001C032ED032EC0E0D0E032E017B3186184
:1006C000C39A08B317BB58E120E84FEF20FF052776
:1006D00008BB279517951C3F28F700004552B0F737
:1006E00020FF0527279508BB17951C3FB8F62991D1
:1006F0003A9561F7077E10918900110F08BBC2502F
:10070000D04011F01093830010E21ABF086017B3B5
:10071000177E402F477E54E05A95F1F708BB17BB70
:1007200048BB7FCF6ADEBB9A80E0815009F04DC0A4
:10073000BB9888E19FE00FB6F894A89581BD0FBEE5
:1007400091BD88B3856288BB7894C1E0DAEE19EE7A
:1007500002EEA89543DD1092680096B381E0292F40
:10076000207295FF80E090916000992331F0211173
:1007700004C0B29B32C010936800809360008091E7
:100780006600B0992DC0823318F48F5F80936600A5
:1007900080916600823341F480916700811104C02A
:1007A00000936800C09367008091770084FFD1CFE9
:1007B0008091680090916200981759F280936200CE
:1007C00063E081E690E0E8DCC4CFA895ECE1F0E1DD
:1007D0003197F1F700C00000A8CFD0936800CDCFCB
:1007E000882319F081508093660080916600811102
:0C07F000DBCF10926700D8CFF894FFCF49
:0607FC0001010000FF5A9C
:00000001FF
